{
  "_format": "hh3-artifact-1",
  "contractName": "ValleToken",
  "sourceName": "contracts/ValleToken.sol",
  "abi": [
    {
      "inputs": [],
      "stateMutability": "nonpayable",
      "type": "constructor"
    },
    {
      "inputs": [
        {
          "internalType": "address",
          "name": "spender",
          "type": "address"
        },
        {
          "internalType": "uint256",
          "name": "allowance",
          "type": "uint256"
        },
        {
          "internalType": "uint256",
          "name": "needed",
          "type": "uint256"
        }
      ],
      "name": "ERC20InsufficientAllowance",
      "type": "error"
    },
    {
      "inputs": [
        {
          "internalType": "address",
          "name": "sender",
          "type": "address"
        },
        {
          "internalType": "uint256",
          "name": "balance",
          "type": "uint256"
        },
        {
          "internalType": "uint256",
          "name": "needed",
          "type": "uint256"
        }
      ],
      "name": "ERC20InsufficientBalance",
      "type": "error"
    },
    {
      "inputs": [
        {
          "internalType": "address",
          "name": "approver",
          "type": "address"
        }
      ],
      "name": "ERC20InvalidApprover",
      "type": "error"
    },
    {
      "inputs": [
        {
          "internalType": "address",
          "name": "receiver",
          "type": "address"
        }
      ],
      "name": "ERC20InvalidReceiver",
      "type": "error"
    },
    {
      "inputs": [
        {
          "internalType": "address",
          "name": "sender",
          "type": "address"
        }
      ],
      "name": "ERC20InvalidSender",
      "type": "error"
    },
    {
      "inputs": [
        {
          "internalType": "address",
          "name": "spender",
          "type": "address"
        }
      ],
      "name": "ERC20InvalidSpender",
      "type": "error"
    },
    {
      "anonymous": false,
      "inputs": [
        {
          "indexed": true,
          "internalType": "address",
          "name": "owner",
          "type": "address"
        },
        {
          "indexed": true,
          "internalType": "address",
          "name": "spender",
          "type": "address"
        },
        {
          "indexed": false,
          "internalType": "uint256",
          "name": "value",
          "type": "uint256"
        }
      ],
      "name": "Approval",
      "type": "event"
    },
    {
      "anonymous": false,
      "inputs": [
        {
          "indexed": true,
          "internalType": "address",
          "name": "from",
          "type": "address"
        },
        {
          "indexed": true,
          "internalType": "address",
          "name": "to",
          "type": "address"
        },
        {
          "indexed": false,
          "internalType": "uint256",
          "name": "value",
          "type": "uint256"
        }
      ],
      "name": "Transfer",
      "type": "event"
    },
    {
      "inputs": [
        {
          "internalType": "address",
          "name": "owner",
          "type": "address"
        },
        {
          "internalType": "address",
          "name": "spender",
          "type": "address"
        }
      ],
      "name": "allowance",
      "outputs": [
        {
          "internalType": "uint256",
          "name": "",
          "type": "uint256"
        }
      ],
      "stateMutability": "view",
      "type": "function"
    },
    {
      "inputs": [
        {
          "internalType": "address",
          "name": "spender",
          "type": "address"
        },
        {
          "internalType": "uint256",
          "name": "value",
          "type": "uint256"
        }
      ],
      "name": "approve",
      "outputs": [
        {
          "internalType": "bool",
          "name": "",
          "type": "bool"
        }
      ],
      "stateMutability": "nonpayable",
      "type": "function"
    },
    {
      "inputs": [
        {
          "internalType": "address",
          "name": "account",
          "type": "address"
        }
      ],
      "name": "balanceOf",
      "outputs": [
        {
          "internalType": "uint256",
          "name": "",
          "type": "uint256"
        }
      ],
      "stateMutability": "view",
      "type": "function"
    },
    {
      "inputs": [
        {
          "internalType": "uint256",
          "name": "value",
          "type": "uint256"
        }
      ],
      "name": "burn",
      "outputs": [],
      "stateMutability": "nonpayable",
      "type": "function"
    },
    {
      "inputs": [
        {
          "internalType": "address",
          "name": "account",
          "type": "address"
        },
        {
          "internalType": "uint256",
          "name": "value",
          "type": "uint256"
        }
      ],
      "name": "burnFrom",
      "outputs": [],
      "stateMutability": "nonpayable",
      "type": "function"
    },
    {
      "inputs": [],
      "name": "decimals",
      "outputs": [
        {
          "internalType": "uint8",
          "name": "",
          "type": "uint8"
        }
      ],
      "stateMutability": "view",
      "type": "function"
    },
    {
      "inputs": [],
      "name": "name",
      "outputs": [
        {
          "internalType": "string",
          "name": "",
          "type": "string"
        }
      ],
      "stateMutability": "view",
      "type": "function"
    },
    {
      "inputs": [],
      "name": "symbol",
      "outputs": [
        {
          "internalType": "string",
          "name": "",
          "type": "string"
        }
      ],
      "stateMutability": "view",
      "type": "function"
    },
    {
      "inputs": [],
      "name": "totalSupply",
      "outputs": [
        {
          "internalType": "uint256",
          "name": "",
          "type": "uint256"
        }
      ],
      "stateMutability": "view",
      "type": "function"
    },
    {
      "inputs": [
        {
          "internalType": "address",
          "name": "to",
          "type": "address"
        },
        {
          "internalType": "uint256",
          "name": "value",
          "type": "uint256"
        }
      ],
      "name": "transfer",
      "outputs": [
        {
          "internalType": "bool",
          "name": "",
          "type": "bool"
        }
      ],
      "stateMutability": "nonpayable",
      "type": "function"
    },
    {
      "inputs": [
        {
          "internalType": "address",
          "name": "from",
          "type": "address"
        },
        {
          "internalType": "address",
          "name": "to",
          "type": "address"
        },
        {
          "internalType": "uint256",
          "name": "value",
          "type": "uint256"
        }
      ],
      "name": "transferFrom",
      "outputs": [
        {
          "internalType": "bool",
          "name": "",
          "type": "bool"
        }
      ],
      "stateMutability": "nonpayable",
      "type": "function"
    }
  ],
  "bytecode": "0x608060405234801562000010575f80fd5b5060408051808201825260058082526456414c4c4560d81b60208084018290528451808601909552918452908301529060036200004e8382620002b0565b5060046200005d8282620002b0565b5050506200009833620000756200009e60201b60201c565b6200008290600a6200048b565b62000092906305f5e100620004a2565b620000a3565b620004d2565b601290565b6001600160a01b038216620000d25760405163ec442f0560e01b81525f60048201526024015b60405180910390fd5b620000df5f8383620000e3565b5050565b6001600160a01b03831662000111578060025f828254620001059190620004bc565b90915550620001839050565b6001600160a01b0383165f9081526020819052604090205481811015620001655760405163391434e360e21b81526001600160a01b03851660048201526024810182905260448101839052606401620000c9565b6001600160a01b0384165f9081526020819052604090209082900390555b6001600160a01b038216620001a157600280548290039055620001bf565b6001600160a01b0382165f9081526020819052604090208054820190555b816001600160a01b0316836001600160a01b03167fddf252ad1be2c89b69c2b068fc378daa952ba7f163c4a11628f55a4df523b3ef836040516200020591815260200190565b60405180910390a3505050565b634e487b7160e01b5f52604160045260245ffd5b600181811c908216806200023b57607f821691505b6020821081036200025a57634e487b7160e01b5f52602260045260245ffd5b50919050565b601f821115620002ab57805f5260205f20601f840160051c81016020851015620002875750805b601f840160051c820191505b81811015620002a8575f815560010162000293565b50505b505050565b81516001600160401b03811115620002cc57620002cc62000212565b620002e481620002dd845462000226565b8462000260565b602080601f8311600181146200031a575f8415620003025750858301515b5f19600386901b1c1916600185901b17855562000374565b5f85815260208120601f198616915b828110156200034a5788860151825594840194600190910190840162000329565b50858210156200036857878501515f19600388901b60f8161c191681555b505060018460011b0185555b505050505050565b634e487b7160e01b5f52601160045260245ffd5b600181815b80851115620003d057815f1904821115620003b457620003b46200037c565b80851615620003c257918102915b93841c939080029062000395565b509250929050565b5f82620003e85750600162000485565b81620003f657505f62000485565b81600181146200040f57600281146200041a576200043a565b600191505062000485565b60ff8411156200042e576200042e6200037c565b50506001821b62000485565b5060208310610133831016604e8410600b84101617156200045f575081810a62000485565b6200046b838362000390565b805f19048211156200048157620004816200037c565b0290505b92915050565b5f6200049b60ff841683620003d8565b9392505050565b80820281158282048414176200048557620004856200037c565b808201808211156200048557620004856200037c565b6107a980620004e05f395ff3fe608060405234801561000f575f80fd5b50600436106100a6575f3560e01c806342966c681161006e57806342966c681461011f57806370a082311461013457806379cc67901461015c57806395d89b411461016f578063a9059cbb14610177578063dd62ed3e1461018a575f80fd5b806306fdde03146100aa578063095ea7b3146100c857806318160ddd146100eb57806323b872dd146100fd578063313ce56714610110575b5f80fd5b6100b26101c2565b6040516100bf91906105ec565b60405180910390f35b6100db6100d6366004610653565b610252565b60405190151581526020016100bf565b6002545b6040519081526020016100bf565b6100db61010b36600461067b565b61026b565b604051601281526020016100bf565b61013261012d3660046106b4565b61028e565b005b6100ef6101423660046106cb565b6001600160a01b03165f9081526020819052604090205490565b61013261016a366004610653565b61029b565b6100b26102b4565b6100db610185366004610653565b6102c3565b6100ef6101983660046106eb565b6001600160a01b039182165f90815260016020908152604080832093909416825291909152205490565b6060600380546101d19061071c565b80601f01602080910402602001604051908101604052809291908181526020018280546101fd9061071c565b80156102485780601f1061021f57610100808354040283529160200191610248565b820191905f5260205f20905b81548152906001019060200180831161022b57829003601f168201915b5050505050905090565b5f3361025f8185856102d0565b60019150505b92915050565b5f336102788582856102e2565b610283858585610363565b506001949350505050565b61029833826103c0565b50565b6102a68233836102e2565b6102b082826103c0565b5050565b6060600480546101d19061071c565b5f3361025f818585610363565b6102dd83838360016103f4565b505050565b6001600160a01b038381165f908152600160209081526040808320938616835292905220545f1981101561035d578181101561034f57604051637dc7a0d960e11b81526001600160a01b038416600482015260248101829052604481018390526064015b60405180910390fd5b61035d84848484035f6103f4565b50505050565b6001600160a01b03831661038c57604051634b637e8f60e11b81525f6004820152602401610346565b6001600160a01b0382166103b55760405163ec442f0560e01b81525f6004820152602401610346565b6102dd8383836104c6565b6001600160a01b0382166103e957604051634b637e8f60e11b81525f6004820152602401610346565b6102b0825f836104c6565b6001600160a01b03841661041d5760405163e602df0560e01b81525f6004820152602401610346565b6001600160a01b03831661044657604051634a1406b160e11b81525f6004820152602401610346565b6001600160a01b038085165f908152600160209081526040808320938716835292905220829055801561035d57826001600160a01b0316846001600160a01b03167f8c5be1e5ebec7d5bd14f71427d1e84f3dd0314c0f7b2291e5b200ac8c7c3b925846040516104b891815260200190565b60405180910390a350505050565b6001600160a01b0383166104f0578060025f8282546104e59190610754565b909155506105609050565b6001600160a01b0383165f90815260208190526040902054818110156105425760405163391434e360e21b81526001600160a01b03851660048201526024810182905260448101839052606401610346565b6001600160a01b0384165f9081526020819052604090209082900390555b6001600160a01b03821661057c5760028054829003905561059a565b6001600160a01b0382165f9081526020819052604090208054820190555b816001600160a01b0316836001600160a01b03167fddf252ad1be2c89b69c2b068fc378daa952ba7f163c4a11628f55a4df523b3ef836040516105df91815260200190565b60405180910390a3505050565b5f602080835283518060208501525f5b81811015610618578581018301518582016040015282016105fc565b505f604082860101526040601f19601f8301168501019250505092915050565b80356001600160a01b038116811461064e575f80fd5b919050565b5f8060408385031215610664575f80fd5b61066d83610638565b946020939093013593505050565b5f805f6060848603121561068d575f80fd5b61069684610638565b92506106a460208501610638565b9150604084013590509250925092565b5f602082840312156106c4575f80fd5b5035919050565b5f602082840312156106db575f80fd5b6106e482610638565b9392505050565b5f80604083850312156106fc575f80fd5b61070583610638565b915061071360208401610638565b90509250929050565b600181811c9082168061073057607f821691505b60208210810361074e57634e487b7160e01b5f52602260045260245ffd5b50919050565b8082018082111561026557634e487b7160e01b5f52601160045260245ffdfea26469706673582212209e118248cff8c5f199278d7c67baed532601b29b23c58fbc77c600a2c5eea10b64736f6c63430008180033",
  "linkReferences": {},
  "deployedLinkReferences": {},
  "immutableReferences": {},
  "inputSourceName": "project/contracts/ValleToken.sol",
  "buildInfoId": "solc-0_8_24-1ecacb6ae8167f5d2bb80a9ef9772e0e0cc0d7d6"
}